:100000000C942A000C9447000C9447000C94470071
:100010000C9447000C9447000C9447000C94470044
:100020000C9447000C9447000C9447000C94470034
:100030000C9447000C9447000C9447000C94470024
:100040000C9447000C9447000C9447000C94470014
:100050000C94470011241FBECFE5D4E0DEBFCDBF16
:1000600012E0A0E6B0E0E2EEF2E002C005900D92F0
:10007000A032B107D9F722E0A0E2B2E001C01D92A0
:10008000A232B207E1F70E94A8000C946F010C9411
:100090000000209120023091210294E0D90180E0FB
:1000A000EC91F0E0E05FFE4F40814C938F5F14963F
:1000B0008430B1F791502F5F3F4F9111EFCF0895EA
:1000C000E0912002F09121028181958191839185B7
:1000D0009583958591878587828192859283828792
:1000E000868196859683868783819785938393857A
:1000F00097879781938787830895CF93DF93609144
:10010000200270912102EC0184E0CC0FDD1F8A9562
:10011000E1F740E050E0FA01EC0FFD1FE05AFF4F1D
:1001200020E030E0DB01A20FB31F91918C91982762
:100130009C932F5F3F4F24303105A1F74C5F5F4FF9
:100140006C5F7F4F4031510531F7DF91CF910895BA
:100150006F927F929F92AF92BF92CF92DF92EF9277
:10016000FF920F931F93CF93DF93CDB7DEB7A09786
:100170000FB6F894DEBF0FBECDBF80E1E0E1F2E044
:10018000DE01519601900D928A95E1F77E0181E1A1
:10019000E80EF11C8E010F5F1F4FD801F70180E1BF
:1001A0008E0D91919D938E13FCCF1093210200939D
:1001B000200280E090E00E947D00CC24C394D12CEA
:1001C0009BE1B92E0E9449000E946000BE016E5F53
:1001D0007F4FDE011396FE0134963F01A801FA011C
:1001E0009081FB01A080A926F30120818C91282712
:1001F0002A25922E99263A2D331F3327331F3B9DF4
:10020000302D11248A2D880F83278925FA018083B8
:10021000FB018081AC90A826922E98263A2D331FA0
:100220003327331F3B9D302D11248A2D880F8327C0
:10023000892580838C91F301A080A826922E982690
:100240003A2D331F3327331F3B9D302D11248A2D28
:10025000880F832789258C93808198272827892FC9
:10026000881F8827881F8B9D802D1124990F982720
:10027000922790834C5F5F4F6C5F7F4F1496F4E042
:100280006F0E711C4E155F0509F0A9CFC6010E94C3
:100290007D008FEFC81AD80A9AE0C916D10409F078
:1002A00091CF0E9449000E9460008AE090E00E9485
:1002B0007D00898190E0A0960FB6F894DEBF0FBE56
:1002C000CDBFDF91CF911F910F91FF90EF90DF9005
:1002D000CF90BF90AF909F907F906F900895F894CB
:0202E000FFCF4E
:1002E200000000000000000000000000000000000C
:1002F20062636363626363636263636362636363D0
:100302009B9898C9F9FBFBAA9B9898C9F9FBFBAA91
:1003120090973450696CCFFAF2F457330B0FAC99C3
:10032200EE06DA7B876A1581759E42B27E91EE2BCC
:100332007F2E2B88F8443E098DDA7CBBF34B9290DA
:10034200EC614B851425758C99FF09376AB49BA71C
:10035200217517873550620BACAF6B3CC61BF09B07
:100362000EF903333BA9613897060A04511DFA9F1F
:10037200B1D4D8E28A7DB9DA1D7BB3DE4C6649413D
:10038200B4EF5BCB3E92E21123E951CF6F8F188E0F
:10039200637C777BF26B6FC53001672BFED7AB7640
:1003A200CA82C97DFA5947F0ADD4A2AF9CA472C0EB
:1003B200B7FD9326363FF7CC34A5E5F171D8311558
:1003C20004C723C31896059A071280E2EB27B27579
:1003D20009832C1A1B6E5AA0523BD6B329E32F84F1
:1003E20053D100ED20FCB15B6ACBBE394A4C58CFE9
:1003F200D0EFAAFB434D338545F9027F503C9FA8BD
:1004020051A3408F929D38F5BCB6DA2110FFF3D28A
:10041200CD0C13EC5F974417C4A77E3D645D19733E
:1004220060814FDC222A908846EEB814DE5E0BDB38
:10043200E0323A0A4906245CC2D3AC629195E4796F
:10044200E7C8376D8DD54EA96C56F4EA657AAE08C9
:10045200BA78252E1CA6B4C6E8DD741F4BBD8B8A64
:10046200703EB5664803F60E613557B986C11D9ECA
:10047200E1F8981169D98E949B1E87E9CE5528DF41
:100482008CA1890DBFE6426841992D0FB054BB166D
:10049200F34481EC3CC627BACD5DC3FB08F273E698
:00000001FF
